{
  "_format": "hh-sol-artifact-1",
  "contractName": "Distribute",
  "sourceName": "contracts/Distribute.sol",
  "abi": [
    {
      "inputs": [],
      "stateMutability": "nonpayable",
      "type": "constructor"
    },
    {
      "inputs": [
        {
          "internalType": "uint256",
          "name": "slot",
          "type": "uint256"
        },
        {
          "internalType": "address",
          "name": "recipient",
          "type": "address"
        }
      ],
      "name": "claim",
      "outputs": [],
      "stateMutability": "nonpayable",
      "type": "function"
    },
    {
      "inputs": [],
      "name": "deployer",
      "outputs": [
        {
          "internalType": "address",
          "name": "",
          "type": "address"
        }
      ],
      "stateMutability": "view",
      "type": "function"
    },
    {
      "inputs": [
        {
          "internalType": "uint256",
          "name": "slot",
          "type": "uint256"
        }
      ],
      "name": "hasBeenClaimed",
      "outputs": [
        {
          "internalType": "bool",
          "name": "",
          "type": "bool"
        }
      ],
      "stateMutability": "view",
      "type": "function"
    },
    {
      "inputs": [],
      "name": "tokenAddress",
      "outputs": [
        {
          "internalType": "address",
          "name": "",
          "type": "address"
        }
      ],
      "stateMutability": "view",
      "type": "function"
    }
  ],
  "bytecode": "0x6080604052600180546001600160a01b03191673978867e9ac04688f7abb70fff3dd48e7ea8bd4be17905534801561003657600080fd5b50600080546001600160a01b031916331790556102b8806100586000396000f3fe608060405234801561001057600080fd5b506004361061004c5760003560e01c806314833a9e146100515780639d76ea5814610089578063d5f39488146100b4578063ddd5e1b2146100c7575b600080fd5b61007461005f366004610204565b60009081526002602052604090205460ff1690565b60405190151581526020015b60405180910390f35b60015461009c906001600160a01b031681565b6040516001600160a01b039091168152602001610080565b60005461009c906001600160a01b031681565b6100da6100d536600461021d565b6100dc565b005b60008281526002602052604090205460ff161561013f5760405162461bcd60e51b815260206004820152601d60248201527f736c6f742068617320616c7265616479206265656e20636c61696d6564000000604482015260640160405180910390fd5b6000546001600160a01b0316331461015657600080fd5b60008281526002602052604090819020805460ff1916600190811790915554905163a9059cbb60e01b81526001600160a01b038381166004830152683635c9adc5dea0000060248301529091169063a9059cbb90604401602060405180830381600087803b1580156101c757600080fd5b505af11580156101db573d6000803e3d6000fd5b505050506040513d601f19601f820116820180604052508101906101ff9190610259565b505050565b60006020828403121561021657600080fd5b5035919050565b6000806040838503121561023057600080fd5b8235915060208301356001600160a01b038116811461024e57600080fd5b809150509250929050565b60006020828403121561026b57600080fd5b8151801515811461027b57600080fd5b939250505056fea26469706673582212207b887a54a983cf38037f9529cf4970c7570dee98f6611c4add35975bb4669cd364736f6c63430008090033",
  "linkReferences": {},
  "deployedLinkReferences": {}
}