{
  "_format": "hh-sol-artifact-1",
  "contractName": "Storage",
  "sourceName": "contracts/Storage.sol",
  "abi": [
    {
      "inputs": [],
      "stateMutability": "nonpayable",
      "type": "constructor"
    },
    {
      "anonymous": false,
      "inputs": [
        {
          "indexed": false,
          "internalType": "uint256",
          "name": "proposalId",
          "type": "uint256"
        },
        {
          "indexed": false,
          "internalType": "uint256",
          "name": "projectIndex",
          "type": "uint256"
        },
        {
          "indexed": true,
          "internalType": "uint256",
          "name": "identifier",
          "type": "uint256"
        },
        {
          "indexed": true,
          "internalType": "address",
          "name": "proposer",
          "type": "address"
        },
        {
          "indexed": true,
          "internalType": "address",
          "name": "rewardee",
          "type": "address"
        }
      ],
      "name": "ProposalCreated",
      "type": "event"
    },
    {
      "inputs": [
        {
          "internalType": "uint256",
          "name": "postIndex",
          "type": "uint256"
        }
      ],
      "name": "getBlockNumber",
      "outputs": [
        {
          "internalType": "uint256",
          "name": "",
          "type": "uint256"
        }
      ],
      "stateMutability": "view",
      "type": "function"
    },
    {
      "inputs": [
        {
          "internalType": "uint256",
          "name": "postIndex",
          "type": "uint256"
        },
        {
          "internalType": "address",
          "name": "uploader",
          "type": "address"
        },
        {
          "internalType": "uint256",
          "name": "identifier",
          "type": "uint256"
        }
      ],
      "name": "getEntryNumber",
      "outputs": [
        {
          "internalType": "uint256",
          "name": "",
          "type": "uint256"
        }
      ],
      "stateMutability": "view",
      "type": "function"
    },
    {
      "inputs": [
        {
          "internalType": "uint256",
          "name": "postIndex",
          "type": "uint256"
        }
      ],
      "name": "getExtraData",
      "outputs": [
        {
          "internalType": "bytes32[]",
          "name": "",
          "type": "bytes32[]"
        }
      ],
      "stateMutability": "view",
      "type": "function"
    },
    {
      "inputs": [
        {
          "internalType": "uint256",
          "name": "postIndex",
          "type": "uint256"
        },
        {
          "internalType": "address",
          "name": "uploader",
          "type": "address"
        },
        {
          "internalType": "uint256",
          "name": "identifier",
          "type": "uint256"
        }
      ],
      "name": "getExtraRewardData",
      "outputs": [
        {
          "internalType": "bytes32[]",
          "name": "",
          "type": "bytes32[]"
        }
      ],
      "stateMutability": "view",
      "type": "function"
    },
    {
      "inputs": [
        {
          "internalType": "uint256",
          "name": "postIndex",
          "type": "uint256"
        }
      ],
      "name": "getIPFSCID",
      "outputs": [
        {
          "internalType": "string",
          "name": "",
          "type": "string"
        }
      ],
      "stateMutability": "view",
      "type": "function"
    },
    {
      "inputs": [
        {
          "internalType": "uint256",
          "name": "postIndex",
          "type": "uint256"
        }
      ],
      "name": "getOriginIndex",
      "outputs": [
        {
          "internalType": "uint256",
          "name": "",
          "type": "uint256"
        }
      ],
      "stateMutability": "view",
      "type": "function"
    },
    {
      "inputs": [
        {
          "internalType": "uint256",
          "name": "postIndex",
          "type": "uint256"
        }
      ],
      "name": "getPreviousVersionIndexes",
      "outputs": [
        {
          "internalType": "uint256[]",
          "name": "",
          "type": "uint256[]"
        }
      ],
      "stateMutability": "view",
      "type": "function"
    },
    {
      "inputs": [
        {
          "internalType": "uint256",
          "name": "postIndex",
          "type": "uint256"
        },
        {
          "internalType": "address",
          "name": "uploader",
          "type": "address"
        },
        {
          "internalType": "uint256",
          "name": "identifier",
          "type": "uint256"
        }
      ],
      "name": "getProposalIndex",
      "outputs": [
        {
          "internalType": "uint256",
          "name": "",
          "type": "uint256"
        }
      ],
      "stateMutability": "view",
      "type": "function"
    },
    {
      "inputs": [
        {
          "internalType": "uint256",
          "name": "postIndex",
          "type": "uint256"
        },
        {
          "internalType": "address",
          "name": "uploader",
          "type": "address"
        },
        {
          "internalType": "uint256",
          "name": "identifier",
          "type": "uint256"
        }
      ],
      "name": "getReward",
      "outputs": [
        {
          "internalType": "uint256",
          "name": "",
          "type": "uint256"
        }
      ],
      "stateMutability": "view",
      "type": "function"
    },
    {
      "inputs": [
        {
          "internalType": "uint256",
          "name": "postIndex",
          "type": "uint256"
        },
        {
          "internalType": "address",
          "name": "uploader",
          "type": "address"
        },
        {
          "internalType": "uint256",
          "name": "identifier",
          "type": "uint256"
        }
      ],
      "name": "getRewardBlockNumber",
      "outputs": [
        {
          "internalType": "uint256",
          "name": "",
          "type": "uint256"
        }
      ],
      "stateMutability": "view",
      "type": "function"
    },
    {
      "inputs": [
        {
          "internalType": "uint256",
          "name": "postIndex",
          "type": "uint256"
        }
      ],
      "name": "getRewardee",
      "outputs": [
        {
          "internalType": "address",
          "name": "",
          "type": "address"
        }
      ],
      "stateMutability": "view",
      "type": "function"
    },
    {
      "inputs": [
        {
          "internalType": "uint256",
          "name": "postIndex",
          "type": "uint256"
        }
      ],
      "name": "getUploader",
      "outputs": [
        {
          "internalType": "address",
          "name": "",
          "type": "address"
        }
      ],
      "stateMutability": "view",
      "type": "function"
    },
    {
      "inputs": [
        {
          "internalType": "uint256",
          "name": "postIndex",
          "type": "uint256"
        },
        {
          "internalType": "uint256",
          "name": "identifier",
          "type": "uint256"
        },
        {
          "internalType": "uint256",
          "name": "proposalId",
          "type": "uint256"
        },
        {
          "internalType": "uint256",
          "name": "reward",
          "type": "uint256"
        },
        {
          "internalType": "bytes32[]",
          "name": "extraRewardData",
          "type": "bytes32[]"
        }
      ],
      "name": "rewardPost",
      "outputs": [
        {
          "internalType": "uint256",
          "name": "totalReward",
          "type": "uint256"
        }
      ],
      "stateMutability": "nonpayable",
      "type": "function"
    },
    {
      "inputs": [
        {
          "internalType": "uint256[]",
          "name": "previousVersionIndexes",
          "type": "uint256[]"
        },
        {
          "internalType": "uint16",
          "name": "postType",
          "type": "uint16"
        },
        {
          "internalType": "address",
          "name": "rewardee",
          "type": "address"
        },
        {
          "internalType": "string",
          "name": "IPFS_CID",
          "type": "string"
        },
        {
          "internalType": "bytes32[]",
          "name": "extraData",
          "type": "bytes32[]"
        }
      ],
      "name": "uploadPost",
      "outputs": [
        {
          "internalType": "uint256",
          "name": "postIndex",
          "type": "uint256"
        }
      ],
      "stateMutability": "nonpayable",
      "type": "function"
    },
    {
      "inputs": [
        {
          "internalType": "uint256",
          "name": "proposalId",
          "type": "uint256"
        },
        {
          "internalType": "uint256",
          "name": "projectIndex",
          "type": "uint256"
        },
        {
          "internalType": "uint256",
          "name": "identifier",
          "type": "uint256"
        },
        {
          "internalType": "address",
          "name": "rewardee",
          "type": "address"
        }
      ],
      "name": "uploadProposal",
      "outputs": [],
      "stateMutability": "nonpayable",
      "type": "function"
    }
  ],
  "bytecode": "0x608060405234801561001057600080fd5b506000600155610d8e806100256000396000f3fe608060405234801561001057600080fd5b50600436106100f55760003560e01c806384b39b8811610097578063af3b8ecf11610066578063af3b8ecf1461030a578063c47ddae91461031d578063e34bc02214610349578063fbd40a5c1461035c57600080fd5b806384b39b881461021c578063a15dedd51461025e578063a265690c146102a0578063adab8fff146102c057600080fd5b80632ae90554116100d35780632ae90554146101a35780633c79ca03146101c657806350c0fbe4146101e65780635c1d96c21461020957600080fd5b806317e73eab146100fa5780631c9cb2d61461014c57806327a3041f1461018e575b600080fd5b610139610108366004610907565b6000928352602083815260408085206001600160a01b03949094168552600790930181528284209184525290205490565b6040519081526020015b60405180910390f35b61013961015a366004610907565b6000928352602083815260408085206001600160a01b03949094168552600790930181528284209184525290206002015490565b6101a161019c36600461093c565b61036f565b005b6101396101b136600461097b565b60009081526020819052604090206001015490565b6101d96101d436600461097b565b6103bd565b6040516101439190610994565b6101396101f436600461097b565b60009081526020819052604090206004015490565b610139610217366004610b30565b610420565b61013961022a366004610907565b6000928352602083815260408085206001600160a01b03949094168552600790930181528284209184525290206003015490565b61013961026c366004610907565b6000928352602083815260408085206001600160a01b03949094168552600790930181528284209184525290206001015490565b6102b36102ae36600461097b565b61057b565b6040516101439190610c32565b6102f26102ce36600461097b565b6000908152602081905260409020600201546201000090046001600160a01b031690565b6040516001600160a01b039091168152602001610143565b610139610318366004610c87565b610616565b6102f261032b36600461097b565b6000908152602081905260409020600301546001600160a01b031690565b6101d961035736600461097b565b610739565b6101d961036a366004610907565b610797565b60408051858152602081018590526001600160a01b03831691339185917f890a5e9af8e4d7b9361faaafa3b96e83be9524f848d435574abd55c64dd584df910160405180910390a450505050565b6000818152602081815260409182902060060180548351818402810184019094528084526060939283018282801561041457602002820191906000526020600020905b815481526020019060010190808311610400575b50505050509050919050565b600180546000918261043183610cde565b9091555050600154600090815260208181526040909120875161045692890190610818565b5061048a8660008151811061046d5761046d610d07565b602002602001015160009081526020819052604090206001015490565b60018054600090815260208181526040808320840194909455825482528382206002908101805461ffff191661ffff8c161790558354835284832001805475ffffffffffffffffffffffffffffffffffffffff00001916620100006001600160a01b038b16021790558254825283822060030180543373ffffffffffffffffffffffffffffffffffffffff1990911617905582548252838220436004909101559154815291909120845161054692600590920191860190610863565b50600154600090815260208181526040909120835161056d92600690920191850190610818565b505060015495945050505050565b600081815260208190526040902060050180546060919061059b90610d1d565b80601f01602080910402602001604051908101604052809291908181526020018280546105c790610d1d565b80156104145780601f106105e957610100808354040283529160200191610414565b820191906000526020600020905b8154815290600101906020018083116105f75750939695505050505050565b60008061062287610739565b60008881526020818152604080832033845260070182528083208a845282529091204381556001810187905560038101889055855192935061066c92600490910191860190610818565b508060008151811061068057610680610d07565b6020026020010151600014156106bf5760008781526020818152604080832033845260070182528083208984529091529020600160029091015561072e565b610707816000815181106106d5576106d5610d07565b6020908102919091018101516000908152808252604080822033835260070183528082208a8352909252206002015490565b60008881526020818152604080832033845260070182528083208a84529091529020600201555b509195945050505050565b6000818152602081815260409182902080548351818402810184019094528084526060939283018282801561041457602002820191906000526020600020908154815260200190600101908083116104005750505050509050919050565b6000838152602081815260408083206001600160a01b0386168452600701825280832084845282529182902060040180548351818402810184019094528084526060939283018282801561080a57602002820191906000526020600020905b8154815260200190600101908083116107f6575b505050505090509392505050565b828054828255906000526020600020908101928215610853579160200282015b82811115610853578251825591602001919060010190610838565b5061085f9291506108d6565b5090565b82805461086f90610d1d565b90600052602060002090601f0160209004810192826108915760008555610853565b82601f106108aa57805160ff1916838001178555610853565b828001600101855582156108535791820182811115610853578251825591602001919060010190610838565b5b8082111561085f57600081556001016108d7565b80356001600160a01b038116811461090257600080fd5b919050565b60008060006060848603121561091c57600080fd5b8335925061092c602085016108eb565b9150604084013590509250925092565b6000806000806080858703121561095257600080fd5b843593506020850135925060408501359150610970606086016108eb565b905092959194509250565b60006020828403121561098d57600080fd5b5035919050565b6020808252825182820181905260009190848201906040850190845b818110156109cc578351835292840192918401916001016109b0565b50909695505050505050565b634e487b7160e01b600052604160045260246000fd5b604051601f8201601f1916810167ffffffffffffffff81118282101715610a1757610a176109d8565b604052919050565b600067ffffffffffffffff821115610a3957610a396109d8565b5060051b60200190565b803561ffff8116811461090257600080fd5b600082601f830112610a6657600080fd5b813567ffffffffffffffff811115610a8057610a806109d8565b610a93601f8201601f19166020016109ee565b818152846020838601011115610aa857600080fd5b816020850160208301376000918101602001919091529392505050565b600082601f830112610ad657600080fd5b81356020610aeb610ae683610a1f565b6109ee565b82815260059290921b84018101918181019086841115610b0a57600080fd5b8286015b84811015610b255780358352918301918301610b0e565b509695505050505050565b600080600080600060a08688031215610b4857600080fd5b853567ffffffffffffffff80821115610b6057600080fd5b818801915088601f830112610b7457600080fd5b81356020610b84610ae683610a1f565b82815260059290921b8401810191818101908c841115610ba357600080fd5b948201945b83861015610bc157853582529482019490820190610ba8565b9950610bd090508a8201610a43565b97505050610be0604089016108eb565b94506060880135915080821115610bf657600080fd5b610c0289838a01610a55565b93506080880135915080821115610c1857600080fd5b50610c2588828901610ac5565b9150509295509295909350565b600060208083528351808285015260005b81811015610c5f57858101830151858201604001528201610c43565b81811115610c71576000604083870101525b50601f01601f1916929092016040019392505050565b600080600080600060a08688031215610c9f57600080fd5b85359450602086013593506040860135925060608601359150608086013567ffffffffffffffff811115610cd257600080fd5b610c2588828901610ac5565b6000600019821415610d0057634e487b7160e01b600052601160045260246000fd5b5060010190565b634e487b7160e01b600052603260045260246000fd5b600181811c90821680610d3157607f821691505b60208210811415610d5257634e487b7160e01b600052602260045260246000fd5b5091905056fea26469706673582212205eca9b9cbca3dea781b4828449a686fd1d851a67d360abefe9e7e11d383440f364736f6c63430008090033",
  "linkReferences": {},
  "deployedLinkReferences": {}
}