{
  "_format": "hh-sol-artifact-1",
  "contractName": "Scanner",
  "sourceName": "contracts/Scanner.sol",
  "abi": [
    {
      "inputs": [
        {
          "internalType": "address",
          "name": "storageAddr",
          "type": "address"
        },
        {
          "internalType": "uint256[]",
          "name": "proposalIndexes",
          "type": "uint256[]"
        },
        {
          "internalType": "address[]",
          "name": "addresses",
          "type": "address[]"
        },
        {
          "internalType": "uint256",
          "name": "numReturns",
          "type": "uint256"
        },
        {
          "internalType": "bool",
          "name": "totalVotes",
          "type": "bool"
        },
        {
          "internalType": "bool",
          "name": "sort",
          "type": "bool"
        },
        {
          "internalType": "address",
          "name": "perspective",
          "type": "address"
        }
      ],
      "name": "getVotes",
      "outputs": [
        {
          "components": [
            {
              "internalType": "uint256",
              "name": "location",
              "type": "uint256"
            },
            {
              "internalType": "uint256",
              "name": "votes",
              "type": "uint256"
            },
            {
              "internalType": "enum IRewarder.ProposalState",
              "name": "state",
              "type": "uint8"
            },
            {
              "internalType": "bool",
              "name": "previouslyFlagged",
              "type": "bool"
            },
            {
              "internalType": "uint256",
              "name": "entryNum",
              "type": "uint256"
            },
            {
              "internalType": "address",
              "name": "uploader",
              "type": "address"
            },
            {
              "internalType": "string",
              "name": "IPFS_CID",
              "type": "string"
            },
            {
              "internalType": "uint256",
              "name": "votingPower",
              "type": "uint256"
            },
            {
              "internalType": "bool",
              "name": "hasVoted",
              "type": "bool"
            }
          ],
          "internalType": "struct Scanner.Data[]",
          "name": "data",
          "type": "tuple[]"
        }
      ],
      "stateMutability": "view",
      "type": "function"
    }
  ],
  "bytecode": "0x608060405234801561001057600080fd5b50611076806100206000396000f3fe608060405234801561001057600080fd5b506004361061002b5760003560e01c806379cb8f9c14610030575b600080fd5b61004361003e366004610c3d565b610059565b6040516100509190610dda565b60405180910390f35b606085518751146100b05760405162461bcd60e51b815260206004820152600f60248201527f6c656e677468206d69736d617463680000000000000000000000000000000000604482015260640160405180910390fd5b6000875167ffffffffffffffff8111156100cc576100cc610b45565b60405190808252806020026020018201604052801561010557816020015b6100f2610ac1565b8152602001906001900390816100ea5790505b50905060005b88518110156102c35761011c610ac1565b818152866101d95788828151811061013657610136610ebc565b60200260200101516001600160a01b0316639627293c8b848151811061015e5761015e610ebc565b60200260200101516040518263ffffffff1660e01b815260040161018491815260200190565b60206040518083038186803b15801561019c57600080fd5b505afa1580156101b0573d6000803e3d6000fd5b505050506040513d601f19601f820116820180604052508101906101d49190610ed2565b610289565b8882815181106101eb576101eb610ebc565b60200260200101516001600160a01b03166319e6e1588b848151811061021357610213610ebc565b60200260200101516040518263ffffffff1660e01b815260040161023991815260200190565b60206040518083038186803b15801561025157600080fd5b505afa158015610265573d6000803e3d6000fd5b505050506040513d601f19601f820116820180604052508101906102899190610ed2565b6020820152825181908490849081106102a4576102a4610ebc565b60200260200101819052505080806102bb90610f01565b91505061010b565b5083156103ef5760005b868110156103ed576000600183516102e59190610f1c565b90505b60018111156103da57826102fd600183610f1c565b8151811061030d5761030d610ebc565b60200260200101516020015183828151811061032b5761032b610ebc565b60200260200101516020015111156103c85760008361034b600184610f1c565b8151811061035b5761035b610ebc565b6020026020010151905083828151811061037757610377610ebc565b60200260200101518460018461038d9190610f1c565b8151811061039d5761039d610ebc565b6020026020010181905250808483815181106103bb576103bb610ebc565b6020026020010181905250505b806103d281610f33565b9150506102e8565b50806103e581610f01565b9150506102cd565b505b60008667ffffffffffffffff81111561040a5761040a610b45565b60405190808252806020026020018201604052801561044357816020015b610430610ac1565b8152602001906001900390816104285790505b50905060005b87811015610ab35782818151811061046357610463610ebc565b602002602001015182828151811061047d5761047d610ebc565b602002602001018190525060008a83838151811061049d5761049d610ebc565b602002602001015160000151815181106104b9576104b9610ebc565b6020026020010151905060008a8484815181106104d8576104d8610ebc565b602002602001015160000151815181106104f4576104f4610ebc565b602002602001015190506000816001600160a01b031663fc68e09f846040518263ffffffff1660e01b815260040161052e91815260200190565b60206040518083038186803b15801561054657600080fd5b505afa15801561055a573d6000803e3d6000fd5b505050506040513d601f19601f8201168201806040525081019061057e9190610ed2565b604051631f27a4f360e11b8152600481018590529091506001600160a01b03831690633e4f49e69060240160206040518083038186803b1580156105c157600080fd5b505afa1580156105d5573d6000803e3d6000fd5b505050506040513d601f19601f820116820180604052508101906105f99190610f4a565b85858151811061060b5761060b610ebc565b602002602001015160400190600381111561062857610628610d46565b9081600381111561063b5761063b610d46565b9052506040516353d4cdfd60e01b8152600481018490526001600160a01b038316906353d4cdfd9060240160206040518083038186803b15801561067e57600080fd5b505afa158015610692573d6000803e3d6000fd5b505050506040513d601f19601f820116820180604052508101906106b69190610f72565b8585815181106106c8576106c8610ebc565b6020908102919091010151901515606090910152604051630e4e596b60e11b8152600481018290526001600160a01b038381166024830152600060448301528f1690631c9cb2d69060640160206040518083038186803b15801561072b57600080fd5b505afa15801561073f573d6000803e3d6000fd5b505050506040513d601f19601f820116820180604052508101906107639190610ed2565b85858151811061077557610775610ebc565b6020908102919091010151608001526040516344bb0af360e11b8152600481018490526001600160a01b0383169063897615e69060240160206040518083038186803b1580156107c457600080fd5b505afa1580156107d8573d6000803e3d6000fd5b505050506040513d601f19601f820116820180604052508101906107fc9190610f8f565b85858151811061080e5761080e610ebc565b60209081029190910101516001600160a01b0391821660a0909101526040516328995a4360e21b815260048101839052908f169063a265690c9060240160006040518083038186803b15801561086357600080fd5b505afa158015610877573d6000803e3d6000fd5b505050506040513d6000823e601f3d908101601f1916820160405261089f9190810190610fac565b8585815181106108b1576108b1610ebc565b602090810291909101015160c001526001600160a01b03881615610a9d5760008e6001600160a01b03166350c0fbe4836040518263ffffffff1660e01b81526004016108ff91815260200190565b60206040518083038186803b15801561091757600080fd5b505afa15801561092b573d6000803e3d6000fd5b505050506040513d601f19601f8201168201806040525081019061094f9190610ed2565b604051633ae4067560e21b81526001600160a01b038b81166004830152602482018390529192509084169063eb9019d49060440160206040518083038186803b15801561099b57600080fd5b505afa1580156109af573d6000803e3d6000fd5b505050506040513d601f19601f820116820180604052508101906109d39190610ed2565b8686815181106109e5576109e5610ebc565b602090810291909101015160e001526040516321c2cb1960e11b8152600481018590526001600160a01b038a8116602483015284169063438596329060440160206040518083038186803b158015610a3c57600080fd5b505afa158015610a50573d6000803e3d6000fd5b505050506040513d601f19601f82011682018060405250810190610a749190610f72565b868681518110610a8657610a86610ebc565b602090810291909101015190151561010090910152505b5050508080610aab90610f01565b915050610449565b509998505050505050505050565b604051806101200160405280600081526020016000815260200160006003811115610aee57610aee610d46565b8152600060208201819052604082018190526060808301829052608083015260a0820181905260c09091015290565b6001600160a01b0381168114610b3257600080fd5b50565b8035610b4081610b1d565b919050565b634e487b7160e01b600052604160045260246000fd5b604051601f8201601f1916810167ffffffffffffffff81118282101715610b8457610b84610b45565b604052919050565b600067ffffffffffffffff821115610ba657610ba6610b45565b5060051b60200190565b600082601f830112610bc157600080fd5b81356020610bd6610bd183610b8c565b610b5b565b82815260059290921b84018101918181019086841115610bf557600080fd5b8286015b84811015610c19578035610c0c81610b1d565b8352918301918301610bf9565b509695505050505050565b8015158114610b3257600080fd5b8035610b4081610c24565b600080600080600080600060e0888a031215610c5857600080fd5b8735610c6381610b1d565b965060208881013567ffffffffffffffff80821115610c8157600080fd5b818b0191508b601f830112610c9557600080fd5b8135610ca3610bd182610b8c565b81815260059190911b8301840190848101908e831115610cc257600080fd5b938501935b82851015610ce057843582529385019390850190610cc7565b9a50505060408b0135925080831115610cf857600080fd5b5050610d068a828b01610bb0565b95505060608801359350610d1c60808901610c32565b9250610d2a60a08901610c32565b9150610d3860c08901610b35565b905092959891949750929550565b634e487b7160e01b600052602160045260246000fd5b60048110610d7a57634e487b7160e01b600052602160045260246000fd5b9052565b60005b83811015610d99578181015183820152602001610d81565b83811115610da8576000848401525b50505050565b60008151808452610dc6816020860160208601610d7e565b601f01601f19169290920160200192915050565b60006020808301818452808551808352604092508286019150828160051b87010184880160005b83811015610eae57603f19898403018552815161012081518552888201518986015287820151610e3389870182610d5c565b506060828101511515908601526080808301519086015260a0808301516001600160a01b03169086015260c080830151818701839052610e7583880182610dae565b9250505060e0808301518187015250610100808301519250610e9a8187018415159052565b509588019593505090860190600101610e01565b509098975050505050505050565b634e487b7160e01b600052603260045260246000fd5b600060208284031215610ee457600080fd5b5051919050565b634e487b7160e01b600052601160045260246000fd5b6000600019821415610f1557610f15610eeb565b5060010190565b600082821015610f2e57610f2e610eeb565b500390565b600081610f4257610f42610eeb565b506000190190565b600060208284031215610f5c57600080fd5b815160048110610f6b57600080fd5b9392505050565b600060208284031215610f8457600080fd5b8151610f6b81610c24565b600060208284031215610fa157600080fd5b8151610f6b81610b1d565b600060208284031215610fbe57600080fd5b815167ffffffffffffffff80821115610fd657600080fd5b818401915084601f830112610fea57600080fd5b815181811115610ffc57610ffc610b45565b61100f601f8201601f1916602001610b5b565b915080825285602082850101111561102657600080fd5b611037816020840160208601610d7e565b5094935050505056fea2646970667358221220147109b41ccd6cb2397a30ab7ad1a4315104659ae55522d97d71e5185dfe5cd564736f6c63430008090033",
  "linkReferences": {},
  "deployedLinkReferences": {}
}