{
  "_format": "hh-sol-artifact-1",
  "contractName": "Collaborator",
  "sourceName": "contracts/Collaborator.sol",
  "abi": [
    {
      "inputs": [],
      "stateMutability": "nonpayable",
      "type": "constructor"
    },
    {
      "anonymous": false,
      "inputs": [
        {
          "indexed": true,
          "internalType": "address",
          "name": "owner",
          "type": "address"
        },
        {
          "indexed": true,
          "internalType": "address",
          "name": "spender",
          "type": "address"
        },
        {
          "indexed": false,
          "internalType": "uint256",
          "name": "value",
          "type": "uint256"
        }
      ],
      "name": "Approval",
      "type": "event"
    },
    {
      "anonymous": false,
      "inputs": [
        {
          "indexed": false,
          "internalType": "uint256",
          "name": "oldChangeTime",
          "type": "uint256"
        },
        {
          "indexed": false,
          "internalType": "uint256",
          "name": "newChangeTime",
          "type": "uint256"
        }
      ],
      "name": "ChangeTimeSet",
      "type": "event"
    },
    {
      "anonymous": false,
      "inputs": [
        {
          "indexed": true,
          "internalType": "address",
          "name": "delegator",
          "type": "address"
        },
        {
          "indexed": true,
          "internalType": "address",
          "name": "fromDelegate",
          "type": "address"
        },
        {
          "indexed": true,
          "internalType": "address",
          "name": "toDelegate",
          "type": "address"
        }
      ],
      "name": "DelegateChanged",
      "type": "event"
    },
    {
      "anonymous": false,
      "inputs": [
        {
          "indexed": true,
          "internalType": "address",
          "name": "delegate",
          "type": "address"
        },
        {
          "indexed": false,
          "internalType": "uint256",
          "name": "previousBalance",
          "type": "uint256"
        },
        {
          "indexed": false,
          "internalType": "uint256",
          "name": "newBalance",
          "type": "uint256"
        }
      ],
      "name": "DelegateVotesChanged",
      "type": "event"
    },
    {
      "anonymous": false,
      "inputs": [
        {
          "indexed": false,
          "internalType": "uint256",
          "name": "oldMaxChange",
          "type": "uint256"
        },
        {
          "indexed": false,
          "internalType": "uint256",
          "name": "newMaxChange",
          "type": "uint256"
        }
      ],
      "name": "MaxChangeSet",
      "type": "event"
    },
    {
      "anonymous": false,
      "inputs": [
        {
          "indexed": false,
          "internalType": "uint256",
          "name": "oldMintRate",
          "type": "uint256"
        },
        {
          "indexed": false,
          "internalType": "uint256",
          "name": "newMintRate",
          "type": "uint256"
        }
      ],
      "name": "MintRateSet",
      "type": "event"
    },
    {
      "anonymous": false,
      "inputs": [
        {
          "indexed": true,
          "internalType": "address",
          "name": "previousOwner",
          "type": "address"
        },
        {
          "indexed": true,
          "internalType": "address",
          "name": "newOwner",
          "type": "address"
        }
      ],
      "name": "OwnershipTransferred",
      "type": "event"
    },
    {
      "anonymous": false,
      "inputs": [
        {
          "indexed": false,
          "internalType": "address",
          "name": "oldTargetAddress",
          "type": "address"
        },
        {
          "indexed": false,
          "internalType": "address",
          "name": "newTargetAddress",
          "type": "address"
        }
      ],
      "name": "TargetAddressSet",
      "type": "event"
    },
    {
      "anonymous": false,
      "inputs": [
        {
          "indexed": true,
          "internalType": "address",
          "name": "from",
          "type": "address"
        },
        {
          "indexed": true,
          "internalType": "address",
          "name": "to",
          "type": "address"
        },
        {
          "indexed": false,
          "internalType": "uint256",
          "name": "value",
          "type": "uint256"
        }
      ],
      "name": "Transfer",
      "type": "event"
    },
    {
      "inputs": [],
      "name": "DOMAIN_SEPARATOR",
      "outputs": [
        {
          "internalType": "bytes32",
          "name": "",
          "type": "bytes32"
        }
      ],
      "stateMutability": "view",
      "type": "function"
    },
    {
      "inputs": [],
      "name": "ICOFinalized",
      "outputs": [
        {
          "internalType": "bool",
          "name": "",
          "type": "bool"
        }
      ],
      "stateMutability": "view",
      "type": "function"
    },
    {
      "inputs": [],
      "name": "ICOLength",
      "outputs": [
        {
          "internalType": "uint256",
          "name": "",
          "type": "uint256"
        }
      ],
      "stateMutability": "view",
      "type": "function"
    },
    {
      "inputs": [],
      "name": "INITIAL_COST_MULTIPLIER",
      "outputs": [
        {
          "internalType": "uint256",
          "name": "",
          "type": "uint256"
        }
      ],
      "stateMutability": "view",
      "type": "function"
    },
    {
      "inputs": [
        {
          "internalType": "address",
          "name": "owner",
          "type": "address"
        },
        {
          "internalType": "address",
          "name": "spender",
          "type": "address"
        }
      ],
      "name": "allowance",
      "outputs": [
        {
          "internalType": "uint256",
          "name": "",
          "type": "uint256"
        }
      ],
      "stateMutability": "view",
      "type": "function"
    },
    {
      "inputs": [
        {
          "internalType": "address",
          "name": "spender",
          "type": "address"
        },
        {
          "internalType": "uint256",
          "name": "amount",
          "type": "uint256"
        }
      ],
      "name": "approve",
      "outputs": [
        {
          "internalType": "bool",
          "name": "",
          "type": "bool"
        }
      ],
      "stateMutability": "nonpayable",
      "type": "function"
    },
    {
      "inputs": [
        {
          "internalType": "address",
          "name": "account",
          "type": "address"
        }
      ],
      "name": "balanceOf",
      "outputs": [
        {
          "internalType": "uint256",
          "name": "",
          "type": "uint256"
        }
      ],
      "stateMutability": "view",
      "type": "function"
    },
    {
      "inputs": [],
      "name": "buyTokens",
      "outputs": [],
      "stateMutability": "payable",
      "type": "function"
    },
    {
      "inputs": [],
      "name": "changeTime",
      "outputs": [
        {
          "internalType": "uint256",
          "name": "",
          "type": "uint256"
        }
      ],
      "stateMutability": "view",
      "type": "function"
    },
    {
      "inputs": [
        {
          "internalType": "address",
          "name": "account",
          "type": "address"
        },
        {
          "internalType": "uint32",
          "name": "pos",
          "type": "uint32"
        }
      ],
      "name": "checkpoints",
      "outputs": [
        {
          "components": [
            {
              "internalType": "uint32",
              "name": "fromBlock",
              "type": "uint32"
            },
            {
              "internalType": "uint224",
              "name": "votes",
              "type": "uint224"
            }
          ],
          "internalType": "struct ERC20Votes.Checkpoint",
          "name": "",
          "type": "tuple"
        }
      ],
      "stateMutability": "view",
      "type": "function"
    },
    {
      "inputs": [],
      "name": "decimals",
      "outputs": [
        {
          "internalType": "uint8",
          "name": "",
          "type": "uint8"
        }
      ],
      "stateMutability": "view",
      "type": "function"
    },
    {
      "inputs": [
        {
          "internalType": "address",
          "name": "spender",
          "type": "address"
        },
        {
          "internalType": "uint256",
          "name": "subtractedValue",
          "type": "uint256"
        }
      ],
      "name": "decreaseAllowance",
      "outputs": [
        {
          "internalType": "bool",
          "name": "",
          "type": "bool"
        }
      ],
      "stateMutability": "nonpayable",
      "type": "function"
    },
    {
      "inputs": [
        {
          "internalType": "address",
          "name": "delegatee",
          "type": "address"
        }
      ],
      "name": "delegate",
      "outputs": [],
      "stateMutability": "nonpayable",
      "type": "function"
    },
    {
      "inputs": [
        {
          "internalType": "address",
          "name": "delegatee",
          "type": "address"
        },
        {
          "internalType": "uint256",
          "name": "nonce",
          "type": "uint256"
        },
        {
          "internalType": "uint256",
          "name": "expiry",
          "type": "uint256"
        },
        {
          "internalType": "uint8",
          "name": "v",
          "type": "uint8"
        },
        {
          "internalType": "bytes32",
          "name": "r",
          "type": "bytes32"
        },
        {
          "internalType": "bytes32",
          "name": "s",
          "type": "bytes32"
        }
      ],
      "name": "delegateBySig",
      "outputs": [],
      "stateMutability": "nonpayable",
      "type": "function"
    },
    {
      "inputs": [
        {
          "internalType": "address",
          "name": "account",
          "type": "address"
        }
      ],
      "name": "delegates",
      "outputs": [
        {
          "internalType": "address",
          "name": "",
          "type": "address"
        }
      ],
      "stateMutability": "view",
      "type": "function"
    },
    {
      "inputs": [],
      "name": "deploymentBlock",
      "outputs": [
        {
          "internalType": "uint256",
          "name": "",
          "type": "uint256"
        }
      ],
      "stateMutability": "view",
      "type": "function"
    },
    {
      "inputs": [
        {
          "internalType": "uint256",
          "name": "amount",
          "type": "uint256"
        }
      ],
      "name": "exchangeTokens",
      "outputs": [],
      "stateMutability": "nonpayable",
      "type": "function"
    },
    {
      "inputs": [],
      "name": "finalizeICO",
      "outputs": [],
      "stateMutability": "nonpayable",
      "type": "function"
    },
    {
      "inputs": [
        {
          "internalType": "uint256",
          "name": "blockNumber",
          "type": "uint256"
        }
      ],
      "name": "getPastTotalSupply",
      "outputs": [
        {
          "internalType": "uint256",
          "name": "",
          "type": "uint256"
        }
      ],
      "stateMutability": "view",
      "type": "function"
    },
    {
      "inputs": [
        {
          "internalType": "address",
          "name": "account",
          "type": "address"
        },
        {
          "internalType": "uint256",
          "name": "blockNumber",
          "type": "uint256"
        }
      ],
      "name": "getPastVotes",
      "outputs": [
        {
          "internalType": "uint256",
          "name": "",
          "type": "uint256"
        }
      ],
      "stateMutability": "view",
      "type": "function"
    },
    {
      "inputs": [
        {
          "internalType": "address",
          "name": "account",
          "type": "address"
        }
      ],
      "name": "getVotes",
      "outputs": [
        {
          "internalType": "uint256",
          "name": "",
          "type": "uint256"
        }
      ],
      "stateMutability": "view",
      "type": "function"
    },
    {
      "inputs": [
        {
          "internalType": "address",
          "name": "spender",
          "type": "address"
        },
        {
          "internalType": "uint256",
          "name": "addedValue",
          "type": "uint256"
        }
      ],
      "name": "increaseAllowance",
      "outputs": [
        {
          "internalType": "bool",
          "name": "",
          "type": "bool"
        }
      ],
      "stateMutability": "nonpayable",
      "type": "function"
    },
    {
      "inputs": [],
      "name": "lastMinted",
      "outputs": [
        {
          "internalType": "uint256",
          "name": "",
          "type": "uint256"
        }
      ],
      "stateMutability": "view",
      "type": "function"
    },
    {
      "inputs": [],
      "name": "maxChange",
      "outputs": [
        {
          "internalType": "uint256",
          "name": "",
          "type": "uint256"
        }
      ],
      "stateMutability": "view",
      "type": "function"
    },
    {
      "inputs": [],
      "name": "mintRate",
      "outputs": [
        {
          "internalType": "uint256",
          "name": "",
          "type": "uint256"
        }
      ],
      "stateMutability": "view",
      "type": "function"
    },
    {
      "inputs": [],
      "name": "name",
      "outputs": [
        {
          "internalType": "string",
          "name": "",
          "type": "string"
        }
      ],
      "stateMutability": "view",
      "type": "function"
    },
    {
      "inputs": [
        {
          "internalType": "address",
          "name": "owner",
          "type": "address"
        }
      ],
      "name": "nonces",
      "outputs": [
        {
          "internalType": "uint256",
          "name": "",
          "type": "uint256"
        }
      ],
      "stateMutability": "view",
      "type": "function"
    },
    {
      "inputs": [
        {
          "internalType": "address",
          "name": "account",
          "type": "address"
        }
      ],
      "name": "numCheckpoints",
      "outputs": [
        {
          "internalType": "uint32",
          "name": "",
          "type": "uint32"
        }
      ],
      "stateMutability": "view",
      "type": "function"
    },
    {
      "inputs": [],
      "name": "owner",
      "outputs": [
        {
          "internalType": "address",
          "name": "",
          "type": "address"
        }
      ],
      "stateMutability": "view",
      "type": "function"
    },
    {
      "inputs": [],
      "name": "ownershipTransferUsed",
      "outputs": [
        {
          "internalType": "bool",
          "name": "",
          "type": "bool"
        }
      ],
      "stateMutability": "view",
      "type": "function"
    },
    {
      "inputs": [
        {
          "internalType": "uint256",
          "name": "x",
          "type": "uint256"
        },
        {
          "internalType": "uint256",
          "name": "y",
          "type": "uint256"
        }
      ],
      "name": "percentDifference",
      "outputs": [
        {
          "internalType": "uint256",
          "name": "",
          "type": "uint256"
        }
      ],
      "stateMutability": "pure",
      "type": "function"
    },
    {
      "inputs": [
        {
          "internalType": "address",
          "name": "owner",
          "type": "address"
        },
        {
          "internalType": "address",
          "name": "spender",
          "type": "address"
        },
        {
          "internalType": "uint256",
          "name": "value",
          "type": "uint256"
        },
        {
          "internalType": "uint256",
          "name": "deadline",
          "type": "uint256"
        },
        {
          "internalType": "uint8",
          "name": "v",
          "type": "uint8"
        },
        {
          "internalType": "bytes32",
          "name": "r",
          "type": "bytes32"
        },
        {
          "internalType": "bytes32",
          "name": "s",
          "type": "bytes32"
        }
      ],
      "name": "permit",
      "outputs": [],
      "stateMutability": "nonpayable",
      "type": "function"
    },
    {
      "inputs": [],
      "name": "renounceOwnership",
      "outputs": [],
      "stateMutability": "nonpayable",
      "type": "function"
    },
    {
      "inputs": [],
      "name": "sendTokens",
      "outputs": [],
      "stateMutability": "nonpayable",
      "type": "function"
    },
    {
      "inputs": [
        {
          "internalType": "uint256",
          "name": "newChangeTime",
          "type": "uint256"
        }
      ],
      "name": "setChangeTime",
      "outputs": [],
      "stateMutability": "nonpayable",
      "type": "function"
    },
    {
      "inputs": [
        {
          "internalType": "uint256",
          "name": "newMaxChange",
          "type": "uint256"
        }
      ],
      "name": "setMaxChange",
      "outputs": [],
      "stateMutability": "nonpayable",
      "type": "function"
    },
    {
      "inputs": [
        {
          "internalType": "uint256",
          "name": "newMintRate",
          "type": "uint256"
        }
      ],
      "name": "setMintRate",
      "outputs": [],
      "stateMutability": "nonpayable",
      "type": "function"
    },
    {
      "inputs": [
        {
          "internalType": "address",
          "name": "newTargetAddress",
          "type": "address"
        }
      ],
      "name": "setTargetAddress",
      "outputs": [],
      "stateMutability": "nonpayable",
      "type": "function"
    },
    {
      "inputs": [],
      "name": "symbol",
      "outputs": [
        {
          "internalType": "string",
          "name": "",
          "type": "string"
        }
      ],
      "stateMutability": "view",
      "type": "function"
    },
    {
      "inputs": [],
      "name": "targetAddress",
      "outputs": [
        {
          "internalType": "address",
          "name": "",
          "type": "address"
        }
      ],
      "stateMutability": "view",
      "type": "function"
    },
    {
      "inputs": [],
      "name": "totalSupply",
      "outputs": [
        {
          "internalType": "uint256",
          "name": "",
          "type": "uint256"
        }
      ],
      "stateMutability": "view",
      "type": "function"
    },
    {
      "inputs": [
        {
          "internalType": "address",
          "name": "to",
          "type": "address"
        },
        {
          "internalType": "uint256",
          "name": "amount",
          "type": "uint256"
        }
      ],
      "name": "transfer",
      "outputs": [
        {
          "internalType": "bool",
          "name": "",
          "type": "bool"
        }
      ],
      "stateMutability": "nonpayable",
      "type": "function"
    },
    {
      "inputs": [
        {
          "internalType": "address",
          "name": "from",
          "type": "address"
        },
        {
          "internalType": "address",
          "name": "to",
          "type": "address"
        },
        {
          "internalType": "uint256",
          "name": "amount",
          "type": "uint256"
        }
      ],
      "name": "transferFrom",
      "outputs": [
        {
          "internalType": "bool",
          "name": "",
          "type": "bool"
        }
      ],
      "stateMutability": "nonpayable",
      "type": "function"
    },
    {
      "inputs": [
        {
          "internalType": "address",
          "name": "newOwner",
          "type": "address"
        }
      ],
      "name": "transferOwnership",
      "outputs": [],
      "stateMutability": "nonpayable",
      "type": "function"
    }
  ],
  "bytecode": "0x610140604052612ee0600b819055670de0b6b3a7640000600c55620000289062124f806200034a565b600e553480156200003857600080fd5b506040518060400160405280600c81526020016b21b7b63630b137b930ba37b960a11b81525080604051806040016040528060018152602001603160f81b8152506040518060400160405280600c81526020016b21b7b63630b137b930ba37b960a11b8152506040518060400160405280600681526020016521a7a62620a160d11b8152508160039080519060200190620000d5929190620002a4565b508051620000eb906004906020840190620002a4565b5050825160209384012082519284019290922060e08390526101008190524660a0818152604080517f8b73c3c69bb8fe3d512ecc4cf759cc79239f7b179b0ffacaa9a75d522b39400f818901819052818301979097526060810194909452608080850193909352308483018190528151808603909301835260c09485019091528151919096012090529290925261012052506200018a905033620001d0565b43600d55600f805460ff19169055620001ac6801158e460913d0000062000222565b620001ca600b5463240c8400620001c491906200034a565b62000263565b620003aa565b600a80546001600160a01b038381166001600160a01b0319831681179093556040519116919082907f8be0079c531659141344cd1fd0a4f28419497f9722a3daafe3b4186f6b6457e090600090a35050565b60115460408051918252602082018390527f08987242ce7a041d81e56fdb5abbeccfbec17aa4749f0dbd713a2ab55ce83be0910160405180910390a1601155565b60125460408051918252602082018390527f429283390d8b8df101273543ba8b03bef2a71455cda04cfe00115a41890c4fd5910160405180910390a1601255565b828054620002b2906200036d565b90600052602060002090601f016020900481019282620002d6576000855562000321565b82601f10620002f157805160ff191683800117855562000321565b8280016001018555821562000321579182015b828111156200032157825182559160200191906001019062000304565b506200032f92915062000333565b5090565b5b808211156200032f576000815560010162000334565b6000826200036857634e487b7160e01b600052601260045260246000fd5b500490565b600181811c908216806200038257607f821691505b60208210811415620003a457634e487b7160e01b600052602260045260246000fd5b50919050565b60805160a05160c05160e0516101005161012051612b7d620003fa600039600061196e015260006119bd01526000611998015260006118f10152600061191b015260006119450152612b7d6000f3fe6080604052600436106102a75760003560e01c806382100e3f11610164578063cefbfebe116100c6578063e47112bd1161008a578063f2fde38b11610064578063f2fde38b146107f2578063f43fd26114610812578063fd8b23701461082857600080fd5b8063e47112bd14610774578063edf49b8514610789578063f1127ed8146107a857600080fd5b8063cefbfebe146106cc578063d0febe4c146106e6578063d505accf146106ee578063dbe2193f1461070e578063dd62ed3e1461072e57600080fd5b80639ab24eb011610128578063bbc19ab011610102578063bbc19ab014610682578063c3cda52014610697578063ca0dcf16146106b757600080fd5b80639ab24eb014610622578063a457c2d714610642578063a9059cbb1461066257600080fd5b806382100e3f146105a35780638c7439fe146105b95780638da5cb5b146105cf5780638e539e8c146105ed57806395d89b411461060d57600080fd5b8063404771261161020d5780635c19a95c116101d157806370a08231116101ab57806370a0823114610538578063715018a61461056e5780637ecebe001461058357600080fd5b80635c19a95c146104c35780636f2f23f6146104e35780636fcfff451461050357600080fd5b8063404771261461040357806342dcdd41146104235780635210eb5614610438578063587cde1e1461046a5780635899e4c5146104a357600080fd5b8063313ce5671161026f578063395093511161024957806339509351146103a35780633a46b1a8146103c35780633dbf6e1d146103e357600080fd5b8063313ce5671461035d5780633409b720146103795780633644e5151461038e57600080fd5b806306fdde03146102ac578063095ea7b3146102d757806318160ddd1461030757806323b872dd1461032657806323cc75a814610346575b600080fd5b3480156102b857600080fd5b506102c1610848565b6040516102ce919061278f565b60405180910390f35b3480156102e357600080fd5b506102f76102f2366004612800565b6108da565b60405190151581526020016102ce565b34801561031357600080fd5b506002545b6040519081526020016102ce565b34801561033257600080fd5b506102f761034136600461282a565b6108f2565b34801561035257600080fd5b5061035b610916565b005b34801561036957600080fd5b50604051601281526020016102ce565b34801561038557600080fd5b50601154610318565b34801561039a57600080fd5b50610318610a0d565b3480156103af57600080fd5b506102f76103be366004612800565b610a1c565b3480156103cf57600080fd5b506103186103de366004612800565b610a5b565b3480156103ef57600080fd5b5061035b6103fe366004612866565b610ad5565b34801561040f57600080fd5b5061035b61041e366004612866565b610b93565b34801561042f57600080fd5b50601254610318565b34801561044457600080fd5b506013546001600160a01b03165b6040516001600160a01b0390911681526020016102ce565b34801561047657600080fd5b5061045261048536600461287f565b6001600160a01b039081166000908152600760205260409020541690565b3480156104af57600080fd5b506103186104be36600461289a565b610c86565b3480156104cf57600080fd5b5061035b6104de36600461287f565b610ce6565b3480156104ef57600080fd5b5061035b6104fe366004612866565b610cf0565b34801561050f57600080fd5b5061052361051e36600461287f565b610da9565b60405163ffffffff90911681526020016102ce565b34801561054457600080fd5b5061031861055336600461287f565b6001600160a01b031660009081526020819052604090205490565b34801561057a57600080fd5b5061035b610dd1565b34801561058f57600080fd5b5061031861059e36600461287f565b610de5565b3480156105af57600080fd5b50610318600d5481565b3480156105c557600080fd5b50610318600c5481565b3480156105db57600080fd5b50600a546001600160a01b0316610452565b3480156105f957600080fd5b50610318610608366004612866565b610e03565b34801561061957600080fd5b506102c1610e5f565b34801561062e57600080fd5b5061031861063d36600461287f565b610e6e565b34801561064e57600080fd5b506102f761065d366004612800565b610ef5565b34801561066e57600080fd5b506102f761067d366004612800565b610f87565b34801561068e57600080fd5b50601854610318565b3480156106a357600080fd5b5061035b6106b23660046128cd565b610f95565b3480156106c357600080fd5b50601054610318565b3480156106d857600080fd5b50600f546102f79060ff1681565b61035b6110cb565b3480156106fa57600080fd5b5061035b610709366004612925565b61110b565b34801561071a57600080fd5b5061035b610729366004612866565b61126f565b34801561073a57600080fd5b5061031861074936600461298f565b6001600160a01b03918216600090815260016020908152604080832093909416825291909152205490565b34801561078057600080fd5b5061035b61132a565b34801561079557600080fd5b50600f546102f790610100900460ff1681565b3480156107b457600080fd5b506107c86107c33660046129c2565b6113e2565b60408051825163ffffffff1681526020928301516001600160e01b031692810192909252016102ce565b3480156107fe57600080fd5b5061035b61080d36600461287f565b611466565b34801561081e57600080fd5b50610318600e5481565b34801561083457600080fd5b5061035b61084336600461287f565b6114d6565b60606003805461085790612a02565b80601f016020809104026020016040519081016040528092919081815260200182805461088390612a02565b80156108d05780601f106108a5576101008083540402835291602001916108d0565b820191906000526020600020905b8154815290600101906020018083116108b357829003601f168201915b5050505050905090565b6000336108e8818585611519565b5060019392505050565b60003361090085828561163d565b61090b8585856116cf565b506001949350505050565b600f5460ff161561096e5760405162461bcd60e51b815260206004820152601560248201527f49434f20616c72656164792066696e616c697a6564000000000000000000000060448201526064015b60405180910390fd5b600e54600d5461097e9043612a4d565b10156109cc5760405162461bcd60e51b815260206004820152601560248201527f49434f20706572696f64206e6f742070617373656400000000000000000000006044820152606401610965565b43601855600b546109fe906109e590639fa52400612a64565b6109f99069d3c21bcecceda1000000612a64565b6118a3565b600f805460ff19166001179055565b6000610a176118e4565b905090565b3360008181526001602090815260408083206001600160a01b03871684529091528120549091906108e89082908690610a56908790612a86565b611519565b6000438210610aac5760405162461bcd60e51b815260206004820152601f60248201527f4552433230566f7465733a20626c6f636b206e6f7420796574206d696e6564006044820152606401610965565b6001600160a01b0383166000908152600860205260409020610ace9083611a0b565b9392505050565b610add611ac8565b601154610aec60125483610c86565b10610b555760405162461bcd60e51b815260206004820152603360248201527f506172616d65746572206368616e67652065786365656473206d617820616c6c6044820152726f7765642070657263656e74206368616e676560681b6064820152608401610965565b601254601654610b659043612a4d565b1015610b835760405162461bcd60e51b815260040161096590612a9e565b43601655610b9081611b22565b50565b33600090815260208190526040902054811115610bf25760405162461bcd60e51b815260206004820152601660248201527f616d6f756e7420657863656564732062616c616e6365000000000000000000006044820152606401610965565b6000610bfd60025490565b610c078347612afc565b610c119190612a64565b9050610c4a610c1f60025490565b83610c2960025490565b610c339190612a4d565b601054610c409190612afc565b6109f99190612a64565b610c543383611b63565b604051339082156108fc029083906000818181858888f19350505050158015610c81573d6000803e3d6000fd5b505050565b600080828411610c9f57610c9a8484612a4d565b610ca9565b610ca98385612a4d565b90506000838511610cba5784610cbc565b835b9050610cd168056bc75e2d6310000083612afc565b9150610cdd8183612a64565b95945050505050565b610b903382611b71565b610cf8611ac8565b601154610d058183610c86565b10610d6e5760405162461bcd60e51b815260206004820152603360248201527f506172616d65746572206368616e67652065786365656473206d617820616c6c6044820152726f7765642070657263656e74206368616e676560681b6064820152608401610965565b601254601554610d7e9043612a4d565b1015610d9c5760405162461bcd60e51b815260040161096590612a9e565b43601555610b9081611bea565b6001600160a01b038116600090815260086020526040812054610dcb90611c2b565b92915050565b610dd9611ac8565b610de36000611c94565b565b6001600160a01b038116600090815260056020526040812054610dcb565b6000438210610e545760405162461bcd60e51b815260206004820152601f60248201527f4552433230566f7465733a20626c6f636b206e6f7420796574206d696e6564006044820152606401610965565b610dcb600983611a0b565b60606004805461085790612a02565b6001600160a01b0381166000908152600860205260408120548015610ee2576001600160a01b0383166000908152600860205260409020610eb0600183612a4d565b81548110610ec057610ec0612b1b565b60009182526020909120015464010000000090046001600160e01b0316610ee5565b60005b6001600160e01b03169392505050565b3360008181526001602090815260408083206001600160a01b038716845290915281205490919083811015610f7a5760405162461bcd60e51b815260206004820152602560248201527f45524332303a2064656372656173656420616c6c6f77616e63652062656c6f77604482015264207a65726f60d81b6064820152608401610965565b61090b8286868403611519565b6000336108e88185856116cf565b83421115610fe55760405162461bcd60e51b815260206004820152601d60248201527f4552433230566f7465733a207369676e617475726520657870697265640000006044820152606401610965565b604080517fe48329057bfd03d55e49b547132e39cffd9c1820ad7b9d4c5307691425d15adf60208201526001600160a01b03881691810191909152606081018690526080810185905260009061105f906110579060a00160405160208183030381529060405280519060200120611ce6565b858585611d34565b905061106a81611d5c565b86146110b85760405162461bcd60e51b815260206004820152601960248201527f4552433230566f7465733a20696e76616c6964206e6f6e6365000000000000006044820152606401610965565b6110c28188611b71565b50505050505050565b600e54600d546110db9043612a4d565b11156110e657600080fd5b611101336110fc34670de0b6b3a7640000612afc565b611d84565b610de33333611b71565b8342111561115b5760405162461bcd60e51b815260206004820152601d60248201527f45524332305065726d69743a206578706972656420646561646c696e650000006044820152606401610965565b60007f6e71edae12b1b97f4d1f60370fef10105fa2faae0126114a169c64845d6126c988888861118a8c611d5c565b6040805160208101969096526001600160a01b0394851690860152929091166060840152608083015260a082015260c0810186905260e00160405160208183030381529060405280519060200120905060006111e582611ce6565b905060006111f582878787611d34565b9050896001600160a01b0316816001600160a01b0316146112585760405162461bcd60e51b815260206004820152601e60248201527f45524332305065726d69743a20696e76616c6964207369676e617475726500006044820152606401610965565b6112638a8a8a611519565b50505050505050505050565b611277611ac8565b60115461128660105483610c86565b106112ef5760405162461bcd60e51b815260206004820152603360248201527f506172616d65746572206368616e67652065786365656473206d617820616c6c6044820152726f7765642070657263656e74206368616e676560681b6064820152608401610965565b6012546014546112ff9043612a4d565b101561131d5760405162461bcd60e51b815260040161096590612a9e565b43601455610b90816118a3565b60006018544361133a9190612a4d565b116113985760405162461bcd60e51b815260206004820152602860248201527f4d757374206265206174206c65617374206f6e6520626c6f636b206265747765604482015267656e206d696e747360c01b6064820152608401610965565b600f5460ff166113a757600080fd5b6000601854436113b79190612a4d565b43601855601354909150610b90906001600160a01b0316826113d860105490565b6110fc9190612afc565b60408051808201909152600080825260208201526001600160a01b0383166000908152600860205260409020805463ffffffff841690811061142657611426612b1b565b60009182526020918290206040805180820190915291015463ffffffff8116825264010000000090046001600160e01b0316918101919091529392505050565b600f54610100900460ff16156114be5760405162461bcd60e51b815260206004820152601560248201527f4f776e65727368697020616c72656164792073657400000000000000000000006044820152606401610965565b600f805461ff001916610100179055610b9081611d8e565b6114de611ac8565b6012546017546114ee9043612a4d565b101561150c5760405162461bcd60e51b815260040161096590612a9e565b43601755610b9081611e04565b6001600160a01b03831661157b5760405162461bcd60e51b8152602060048201526024808201527f45524332303a20617070726f76652066726f6d20746865207a65726f206164646044820152637265737360e01b6064820152608401610965565b6001600160a01b0382166115dc5760405162461bcd60e51b815260206004820152602260248201527f45524332303a20617070726f766520746f20746865207a65726f206164647265604482015261737360f01b6064820152608401610965565b6001600160a01b0383811660008181526001602090815260408083209487168084529482529182902085905590518481527f8c5be1e5ebec7d5bd14f71427d1e84f3dd0314c0f7b2291e5b200ac8c7c3b925910160405180910390a3505050565b6001600160a01b0383811660009081526001602090815260408083209386168352929052205460001981146116c957818110156116bc5760405162461bcd60e51b815260206004820152601d60248201527f45524332303a20696e73756666696369656e7420616c6c6f77616e63650000006044820152606401610965565b6116c98484848403611519565b50505050565b6001600160a01b0383166117335760405162461bcd60e51b815260206004820152602560248201527f45524332303a207472616e736665722066726f6d20746865207a65726f206164604482015264647265737360d81b6064820152608401610965565b6001600160a01b0382166117955760405162461bcd60e51b815260206004820152602360248201527f45524332303a207472616e7366657220746f20746865207a65726f206164647260448201526265737360e81b6064820152608401610965565b6001600160a01b0383166000908152602081905260409020548181101561180d5760405162461bcd60e51b815260206004820152602660248201527f45524332303a207472616e7366657220616d6f756e7420657863656564732062604482015265616c616e636560d01b6064820152608401610965565b6001600160a01b03808516600090815260208190526040808220858503905591851681529081208054849290611844908490612a86565b92505081905550826001600160a01b0316846001600160a01b03167fddf252ad1be2c89b69c2b068fc378daa952ba7f163c4a11628f55a4df523b3ef8460405161189091815260200190565b60405180910390a36116c9848484611e6d565b60105460408051918252602082018390527f8c1aeb7c18cd502bf63221a9584b5f39883cb942e5bb086b267abb2da5ce5f00910160405180910390a1601055565b6000306001600160a01b037f00000000000000000000000000000000000000000000000000000000000000001614801561193d57507f000000000000000000000000000000000000000000000000000000000000000046145b1561196757507f000000000000000000000000000000000000000000000000000000000000000090565b50604080517f00000000000000000000000000000000000000000000000000000000000000006020808301919091527f0000000000000000000000000000000000000000000000000000000000000000828401527f000000000000000000000000000000000000000000000000000000000000000060608301524660808301523060a0808401919091528351808403909101815260c0909201909252805191012090565b8154600090815b81811015611a6f576000611a268284611e78565b905084868281548110611a3b57611a3b612b1b565b60009182526020909120015463ffffffff161115611a5b57809250611a69565b611a66816001612a86565b91505b50611a12565b8115611ab35784611a81600184612a4d565b81548110611a9157611a91612b1b565b60009182526020909120015464010000000090046001600160e01b0316611ab6565b60005b6001600160e01b031695945050505050565b600a546001600160a01b03163314610de35760405162461bcd60e51b815260206004820181905260248201527f4f776e61626c653a2063616c6c6572206973206e6f7420746865206f776e65726044820152606401610965565b60125460408051918252602082018390527f429283390d8b8df101273543ba8b03bef2a71455cda04cfe00115a41890c4fd5910160405180910390a1601255565b611b6d8282611e93565b5050565b6001600160a01b038281166000818152600760208181526040808420805485845282862054949093528787166001600160a01b03198416811790915590519190951694919391928592917f3134e8a2e6d97e929a7e54011ea5485d7d196dd5f0ba4d4ef95803e8e3fc257f9190a46116c9828483611eab565b60115460408051918252602082018390527f08987242ce7a041d81e56fdb5abbeccfbec17aa4749f0dbd713a2ab55ce83be0910160405180910390a1601155565b600063ffffffff821115611c905760405162461bcd60e51b815260206004820152602660248201527f53616665436173743a2076616c756520646f65736e27742066697420696e203360448201526532206269747360d01b6064820152608401610965565b5090565b600a80546001600160a01b038381166001600160a01b0319831681179093556040519116919082907f8be0079c531659141344cd1fd0a4f28419497f9722a3daafe3b4186f6b6457e090600090a35050565b6000610dcb611cf36118e4565b8360405161190160f01b6020820152602281018390526042810182905260009060620160405160208183030381529060405280519060200120905092915050565b6000806000611d4587878787611fe8565b91509150611d52816120d5565b5095945050505050565b6001600160a01b03811660009081526005602052604090208054600181018255905b50919050565b611b6d8282612290565b611d96611ac8565b6001600160a01b038116611dfb5760405162461bcd60e51b815260206004820152602660248201527f4f776e61626c653a206e6577206f776e657220697320746865207a65726f206160448201526564647265737360d01b6064820152608401610965565b610b9081611c94565b601354604080516001600160a01b03928316815291831660208301527feffb1767abd368c3951716627d3fc133ca2a1ec621ae9be60096b9c3153e5b2b910160405180910390a1601380546001600160a01b0319166001600160a01b0392909216919091179055565b610c81838383612327565b6000611e876002848418612a64565b610ace90848416612a86565b611e9d8282612359565b6116c960096124ae836124ba565b816001600160a01b0316836001600160a01b031614158015611ecd5750600081115b15610c81576001600160a01b03831615611f5b576001600160a01b03831660009081526008602052604081208190611f08906124ae856124ba565b91509150846001600160a01b03167fdec2bacdd2f05b59de34da9b523dff8be42e5e38e818c82fdb0bae774387a7248383604051611f50929190918252602082015260400190565b60405180910390a250505b6001600160a01b03821615610c81576001600160a01b03821660009081526008602052604081208190611f9190612633856124ba565b91509150836001600160a01b03167fdec2bacdd2f05b59de34da9b523dff8be42e5e38e818c82fdb0bae774387a7248383604051611fd9929190918252602082015260400190565b60405180910390a25050505050565b6000807f7fffffffffffffffffffffffffffffff5d576e7357a4501ddfe92f46681b20a083111561201f57506000905060036120cc565b8460ff16601b1415801561203757508460ff16601c14155b1561204857506000905060046120cc565b6040805160008082526020820180845289905260ff881692820192909252606081018690526080810185905260019060a0016020604051602081039080840390855afa15801561209c573d6000803e3d6000fd5b5050604051601f1901519150506001600160a01b0381166120c5576000600192509250506120cc565b9150600090505b94509492505050565b60008160048111156120e9576120e9612b31565b14156120f25750565b600181600481111561210657612106612b31565b14156121545760405162461bcd60e51b815260206004820152601860248201527f45434453413a20696e76616c6964207369676e617475726500000000000000006044820152606401610965565b600281600481111561216857612168612b31565b14156121b65760405162461bcd60e51b815260206004820152601f60248201527f45434453413a20696e76616c6964207369676e6174757265206c656e677468006044820152606401610965565b60038160048111156121ca576121ca612b31565b14156122235760405162461bcd60e51b815260206004820152602260248201527f45434453413a20696e76616c6964207369676e6174757265202773272076616c604482015261756560f01b6064820152608401610965565b600481600481111561223757612237612b31565b1415610b905760405162461bcd60e51b815260206004820152602260248201527f45434453413a20696e76616c6964207369676e6174757265202776272076616c604482015261756560f01b6064820152608401610965565b61229a828261263f565b6002546001600160e01b0310156123195760405162461bcd60e51b815260206004820152603060248201527f4552433230566f7465733a20746f74616c20737570706c79207269736b73206f60448201527f766572666c6f77696e6720766f746573000000000000000000000000000000006064820152608401610965565b6116c96009612633836124ba565b6001600160a01b03838116600090815260076020526040808220548584168352912054610c8192918216911683611eab565b6001600160a01b0382166123b95760405162461bcd60e51b815260206004820152602160248201527f45524332303a206275726e2066726f6d20746865207a65726f206164647265736044820152607360f81b6064820152608401610965565b6001600160a01b0382166000908152602081905260409020548181101561242d5760405162461bcd60e51b815260206004820152602260248201527f45524332303a206275726e20616d6f756e7420657863656564732062616c616e604482015261636560f01b6064820152608401610965565b6001600160a01b038316600090815260208190526040812083830390556002805484929061245c908490612a4d565b90915550506040518281526000906001600160a01b038516907fddf252ad1be2c89b69c2b068fc378daa952ba7f163c4a11628f55a4df523b3ef9060200160405180910390a3610c8183600084611e6d565b6000610ace8284612a4d565b82546000908190801561250557856124d3600183612a4d565b815481106124e3576124e3612b1b565b60009182526020909120015464010000000090046001600160e01b0316612508565b60005b6001600160e01b0316925061252183858763ffffffff16565b915060008111801561255f5750438661253b600184612a4d565b8154811061254b5761254b612b1b565b60009182526020909120015463ffffffff16145b156125bf5761256d82612726565b86612579600184612a4d565b8154811061258957612589612b1b565b9060005260206000200160000160046101000a8154816001600160e01b0302191690836001600160e01b0316021790555061262a565b8560405180604001604052806125d443611c2b565b63ffffffff1681526020016125e885612726565b6001600160e01b0390811690915282546001810184556000938452602093849020835194909301519091166401000000000263ffffffff909316929092179101555b50935093915050565b6000610ace8284612a86565b6001600160a01b0382166126955760405162461bcd60e51b815260206004820152601f60248201527f45524332303a206d696e7420746f20746865207a65726f2061646472657373006044820152606401610965565b80600260008282546126a79190612a86565b90915550506001600160a01b038216600090815260208190526040812080548392906126d4908490612a86565b90915550506040518181526001600160a01b038316906000907fddf252ad1be2c89b69c2b068fc378daa952ba7f163c4a11628f55a4df523b3ef9060200160405180910390a3611b6d60008383611e6d565b60006001600160e01b03821115611c905760405162461bcd60e51b815260206004820152602760248201527f53616665436173743a2076616c756520646f65736e27742066697420696e20326044820152663234206269747360c81b6064820152608401610965565b600060208083528351808285015260005b818110156127bc578581018301518582016040015282016127a0565b818111156127ce576000604083870101525b50601f01601f1916929092016040019392505050565b80356001600160a01b03811681146127fb57600080fd5b919050565b6000806040838503121561281357600080fd5b61281c836127e4565b946020939093013593505050565b60008060006060848603121561283f57600080fd5b612848846127e4565b9250612856602085016127e4565b9150604084013590509250925092565b60006020828403121561287857600080fd5b5035919050565b60006020828403121561289157600080fd5b610ace826127e4565b600080604083850312156128ad57600080fd5b50508035926020909101359150565b803560ff811681146127fb57600080fd5b60008060008060008060c087890312156128e657600080fd5b6128ef876127e4565b9550602087013594506040870135935061290b606088016128bc565b92506080870135915060a087013590509295509295509295565b600080600080600080600060e0888a03121561294057600080fd5b612949886127e4565b9650612957602089016127e4565b95506040880135945060608801359350612973608089016128bc565b925060a0880135915060c0880135905092959891949750929550565b600080604083850312156129a257600080fd5b6129ab836127e4565b91506129b9602084016127e4565b90509250929050565b600080604083850312156129d557600080fd5b6129de836127e4565b9150602083013563ffffffff811681146129f757600080fd5b809150509250929050565b600181811c90821680612a1657607f821691505b60208210811415611d7e57634e487b7160e01b600052602260045260246000fd5b634e487b7160e01b600052601160045260246000fd5b600082821015612a5f57612a5f612a37565b500390565b600082612a8157634e487b7160e01b600052601260045260246000fd5b500490565b60008219821115612a9957612a99612a37565b500190565b602080825260409082018190527f4e6f7420656e6f7567682074696d6520686173207061737365642073696e6365908201527f207468697320706172616d6574657220776173206c617374206368616e676564606082015260800190565b6000816000190483118215151615612b1657612b16612a37565b500290565b634e487b7160e01b600052603260045260246000fd5b634e487b7160e01b600052602160045260246000fdfea26469706673582212208fb023b4d6d62497d049a85c0f74ec0aca31a76a28437c9105a1c1f1543743d264736f6c63430008090033",
  "linkReferences": {},
  "deployedLinkReferences": {}
}